:040000000EEF00F00F
:0400080004EF04F00D
:100018000CEF04F0DFEF02F03D6A406A436A3E6A83
:10002800416A426A3F6A0001C751C611D8B412003A
:10003800C46BC56BC451600FD96EDA6ADF503D6E70
:10004800C44BC52B86D00C800F0E0101006F646B6A
:10005800656B000E676F010E666F010C0C82550E02
:10006800F4D78A7E2B0EAD6E010E406EC451600F20
:10007800D96EDA6ADF50416E426AC44BC52BC4514F
:10008800600FD96EDA6ADF504226C44BC52B0928A7
:10009800396E000E0A203A6E421802E141503918B2
:1000A80003E04104421039E1C451396EC5513A6E3A
:1000B800C44BC52B3950600FD96EDA6A3A0EDF622D
:1000C8002CD0C4053F6EC451600FD96EDA6ADF5078
:1000D800040F436E43C03EF03B6A3C6A210E436006
:1000E8001CD00BD0C451600FD96EDA6ADF503B26A2
:1000F800000E3C22C44BC52B43064366F3D7C451BC
:10010800396EC5513A6EC44BC52B3950600FD96E44
:10011800DA6ADF503B24D8B4406A406613D03F50B7
:10012800600F336E020E3E24346E356A000E35229F
:100138000E0EC5EC02F00C8441C009F042C00AF072
:10014800CC0E83D7AA0E81D7C46BC56BC66BC76BA1
:10015800F9D73D50110A01E176D7030A01E17ED7AC
:10016800010A01E17ED7F0D7010E486E496A4A6A52
:100178001BEC03F0010ED16EFAEC01F08A8E346AA2
:10018800010E336E39EC03F0476E47040FE1346A11
:10019800020E336E39EC03F0020A08E1346A030EEA
:1001A800336E39EC03F0030AD8B4486A4804D8B46B
:1001B80000EF04F066EC03F03E0EAD6EF86A080E30
:1001C8004C6E4B6A04004BC0F6FF4C50F76E900E15
:1001D800A66E45EC03F0400E4B26000E4C224B5CFD
:1001E800FF0E4C5803E22D0EAD6EEDD78AEC02F0EF
:1001F8000CA40AD054EC01F00C94550E2DEC03F02D
:10020800010E4A6E040007D00CA205D060EC03F082
:100218000009D8A4FFD70CA63FD04D0EAD6E496695
:1002280034D069EC03F0346A010E336EFF0E356882
:10023800A8EC02F069EC03F0346A020E336EFF0E8C
:100248003568A8EC02F069EC03F0346A030E336EEB
:10025800FF0E3568A8EC02F0346A010E336E39ECF3
:1002680003F0476E47040EE1346A020E336E39EC30
:1002780003F0020A07E1346A030E336E39EC03F027
:10028800030A0AE0010E496E07D060EC03F000098A
:1002980003E03C0EAD6EFFD74A66A8D70400A6D788
:1002A800356A10C0F7FFF7CFAAFF11C0F6FFF6CFE7
:1002B800A9FF010E0D6E4DD050EC03F026D035503D
:1002C800130FD96EDA6AA9CF34F0070E34163450FA
:1002D800010FE16EE26ADFCFE7FFE750A86EA8CF13
:1002E800F5FF352AA6BC02D0A6BE06D0A6BC59EC9E
:1002F80003F045EC03F008D0A950070B070A04E106
:1003080008EC03F050EC03F0A92A0F060F28D7E1F8
:10031800A950070BD8A4A6AE120008EF03F0355079
:10032800130FD96EDA6ADF50A96E352A0F060F2827
:10033800F6E1A68EA950F00AD8B4A69EA69CA950AC
:10034800F00B300AD8B4A68CA9CFF8FF12000C869F
:1003580012001250B1E0010AFAE0050AD8A412000E
:10036800E5D7CBBCC7A82CD010EC00F00001C46BBB
:10037800C56BC66BC76BCB9C1200C698C69CC95090
:10038800C6881200C698C69CC9CF46F04650F4EC01
:1003980002F0CB8CC6881200C698C9503EEC02F019
:1003A800C96EF8D7C6B802D0C698F8D7C950120097
:1003B800C7503C0B340AD8B4C5ACF8D7C950F6D7E7
:1003C800C7502D0B446E456A455003E0100A0BE0F8
:1003D800EFD74450090AD1E0040ADEE0240AD2E04B
:1003E800050AE0E0E5D74450E1E0E2D72A0E926E34
:1003F800806A2A0E0F01386F7F0E936E816A616AD8
:10040800380E396F628C6298629A629EBF0E946E43
:10041800826A3A6B0F0E956E836A3B6B0A0E966E74
:10042800846A020E3C6F949C948EAC8AAC98AC9C07
:10043800AC84AB8EAB9CAB98B86AAF6AD08CF19E9B
:10044800F19CF19AF198F194F190F09EF09CF0985B
:10045800F096F092F090F290F292F294F296F2986E
:10046800F28AF29CF29EF29CF29ED58E8C9C899C1C
:100478008C9A1200010121EE66F011EE64F0E6524A
:10048800DE52DD50E55C02E1DF50E75C1DE2000E64
:100498006425D96E010E6521DA6EDF50336E644B28
:1004A800652B21EE66F011EE64F0E652DE52DD5067
:1004B800E518DFCFE8FFD8B4E71804E1666B676B8F
:1004C800646B656B33501200AA0CE8CF33F0948646
:1004D80094880F013A973A99C69EC69CC68AC688E0
:1004E800C650F00B0609C66EC59EC59AC580CB9C42
:1004F800CB9ACB94CB92CB90CB9633C0C8FFC78E08
:10050800C79CC7909E969F869D96120017D09EA660
:1005180005D09E96B5EC01F0C6881200C6AEC6BCE2
:1005280002D0A1A61200C69EC69CA196C950120070
:10053800200E69EC02F0010E0B6E010C0B50F8E076
:10054800010AD8A41200E3D73450030BAA6E33C0B3
:10055800A9FF35C0A8FFA69EA69CA684000EF2BEE1
:10056800010E366EF29E550EA76EAA0EA76EA682D3
:10057800A6B2FED736B002D0F29E01D0F28EA69473
:100588001200E8CF36F033C038F036C037F00AD062
:100598003850D96EDA6A3750E16EE26ADFCFE7FF8A
:1005A800382A372A3406D8A035063428D8B435284E
:1005B800D8B41200EDD701EE00F0680EEE6AE80636
:1005C800FDE100EE60F0680EEE6AE806FDE100EE7F
:1005D80001F0320EEE6AE806FDE10001B8EF00F026
:1005E800E8CF33F0640E0001C65D000EC759D8B0DD
:1005F8001200C451600FD96EDA6A33C0DFFFC44BF2
:10060800C52BC64BC72B12000D5002E0F80EF6168C
:10061800336A3350010FD96EDA6ADF50F56E332A28
:1006280059EC03F0070E3364F4D745EF03F0D39E7B
:10063800D3508F0B6009D36ED396D350FC0B0209AD
:10064800D36ED298D296D29C9B9C9B9ED3B4120018
:10065800FDD7E8CF33F033C000F10101646B656B5F
:10066800000E676F010E666F010C3450030BAA6E03
:1006780033C0A9FFA69CA69EA68000F000F0A85053
:100688001200A684550EA76EAA0EA76EA68200F0C9
:10069800A6B2FED7A694120003680268016806682D
:1006A800056804680868076812000D5002E00C002D
:1006B80001D00F000D6A120001016751661101E1B6
:1006C800010C000C200E69EF02F0A6A21200FDD763
:1008000077EF04F0FF00FF00FACF21F0FBCF22F0DA
:10081000E9CF23F0F0EF24F0D8CF02F0E8CF03F0D7
:10082000E0CF04F0D9CF05F0DACF06F0F2A401D082
:1008300001D012D0F294010E3126000E3222000EA9
:100840003322000E3422D5B601D001D003D0B20E2F
:10085000D66E02D0DA0ED66E9EA201D001D001D0A3
:100860009E929EAC01D001D007D09E9CC3CF35F0A4
:10087000C4CF36F000015E809EAA01D001D00FD017
:10088000AECF07F09E9AABA201D001D003D0AB98B7
:10089000AB8805D0075076EC2BF007C0ADFF7EA0EB
:1008A00001D001D006D07E900F015195010E0201BA
:1008B0009A6FF2A001D001D00FD0F2A601D001D0E2
:1008C0000BD08150D8B401D001D001D000F0F2900B
:1008D000F296010E01012E6F06C0DAFF05C0D9FFA6
:1008E00004C0E0FF03C0E8FF02C0D8FF100086EF9D
:1008F00028F00101CD6BCE6BD16BD26BDC6BD96B69
:10090000DA6BD56BD66BD76BD86BDB6928EEC1F091
:10091000DE50DD1001E1FF0C000EE8CFBFF8E8CF9C
:10092000C0F807D028EEBFF0DE2A000EDD22CD4B46
:10093000CE2B28EEBFF0DECFC7F1DDCFC8F18C0E95
:10094000C725D96E070EC821DA6EDF505B0A0CE0AE
:1009500028EEC1F018EEBFF0E652DE52DD50E55C45
:1009600002E1DF50E75CDEE328EEC1F018EEBFF0F5
:10097000E652DE52DD50E55C02E1DF50E75C08E361
:10098000000EE8CFBFF8E8CFC0F80101DB5112003C
:1009900028EEBFF0DECFC7F1DDCFC8F18C0EC72542
:1009A000DF6F070EC821E06F28EEBFF0DECFC7F182
:1009B000DDCFC8F1040EC727000EC823C7C1BFF89A
:1009C000C8C1C0F828EEBFF0DECFC7F1DDCFC8F157
:1009D0008C0EC725DD6F070EC821DE6F20EE01F0FB
:1009E000DF51D926E051DA22DECFC7F1DDCFC8F1E1
:1009F00028EEBFF0DECFC9F1DDCFCAF18B0EC925DD
:100A0000CB6F070ECA21CC6FC751CB25D36FC8510E
:100A1000CC21D46F20EE02F0D351D926D451DA2262
:100A2000DF505D0AADE18C0ECD250001606F070E31
:100A30000101CE210001616F010120EE01F0DF51C3
:100A4000D926E051DA22DECFC7F1DDCFC8F1030E9F
:100A5000C7250001626F000E0101C8210001636F0C
:100A60000FEC27F060C0CFF161C0D0F1D3C1D9FF46
:100A7000D4C1DAFF0101DE52D051DD18CFC1E8FF49
:100A8000D8B4DF184AE028EEC3F0DE2A000EDE22DA
:100A9000DE22DD22D906D906E8CFC1F8E8CFC2F8B8
:100AA000E8CFBFF8E8CFC0F82F6A010E4FEC27F06F
:100AB00081A16BD7F80E00018F6FB40E8E6F000E00
:100AC000906B0FEC28F0010E0001636FCF0E626F88
:100AD000656B020E646FB1EC29F0FE0E0001616FD0
:100AE000A50E606F21EC29F0D3C1D9FFD4C1DAFF84
:100AF000DECFD9F1DDCFDAF1010E0001636FD90E3F
:100B0000626F656B020E646FB1EC29F00D0EC5ECDF
:100B10002CF00A0EC5EC2CF038D7DB6B010E00016F
:100B2000616F7C0E606F14EC2DF0010180AF1DD35E
:100B3000FE0E00018F6F640E8E6F000E906B0FEC37
:100B400028F0010120EE03F0DF51D926E051DA222E
:100B5000DF501F0BDC6F010E0001636FDC0E626F54
:100B6000656B010E646FB1EC29F0FE0E0001616F40
:100B7000EF0E606F21EC29F0010120EE03F0DF5150
:100B8000D926E051DA22DF38E832070BDC6F010E9C
:100B90000001636FDC0E626F656B010E646FB1EC78
:100BA00029F0FE0E0001616FB10E606F21EC29F09B
:100BB000010120EE01F0DF51D926E051DA22DECF2B
:100BC000D9F1DDCFDAF1010E0001636FD90E626F4A
:100BD000656B020E646FB1EC29F0FE0E0001616FCF
:100BE000E70E606F21EC29F0D3C1D9FFD4C1DAFF41
:100BF000DECFD9F1DDCFDAF1010E0001636FD90E3E
:100C0000626F656B020E646FB1EC29F00D0EC5ECDE
:100C10002CF00A0EC5EC2CF0A8D2080E0001656F6E
:100C2000CC0E646F000E666B676BD2EC1BF064C079
:100C3000D1F165C0D2F1010E0001616F490E606F04
:100C4000DDC162F0DEC163F0656B080E646FBAEC63
:100C50002AF00101010E306E510E2F6E7EEC2CF049
:100C600080AF38D0FE0E0001616F990E606F21ECED
:100C700029F049C1D5F14AC1D6F14BC1D7F14CC1D8
:100C8000D8F1010E0001636FD50E626F656B040E23
:100C9000646FB1EC29F0FE0E0001616F8D0E606F84
:100CA00021EC29F04DC1D5F14EC1D6F14FC1D7F19C
:100CB00050C1D8F1010E0001636FD50E626F656BF4
:100CC000040E646FB1EC29F00D0EC5EC2CF00A0E89
:100CD000C5EC2CF00101D251D11101E056D6010E24
:100CE000BC6FB80EBB6FBE6B020EBD6FCCEC12F0CA
:100CF0008C9A4BD620EE03F0DF51D926E051DA2250
:100D0000DF38E832070B3F6E010E316F1FD0DD4B2D
:100D1000DE2B010E0001616F800E606FDDC162F09D
:100D2000DEC163F0656B040E646FBAEC2AF001015A
:100D30008091010E0001686F800E676F6A6B696BAE
:100D40006C6B040E6B6F96EC24F01FD6DDC1D9FFDF
:100D5000DEC1DAFFDF50DBE018D6010E0001616F63
:100D6000880E606FDDC162F0DEC163F0656B040E5A
:100D7000646FBAEC2AF033EC20F0010188A902D0AC
:100D80008899898989A138D089911AEC2DF00001C0
:100D9000616B010E606F626F59EC2BF01AEC2DF055
:100DA0000001616B020E606F626F59EC2BF01AEC60
:100DB0002DF00001616B030E606F626F59EC2BF038
:100DC000306A010E2F6EDFEC2CF00101C76FC705F2
:100DD00001E0DBD5306A020E2F6EDFEC2CF0020A48
:100DE00001E0D3D5306A030E2F6EDFEC2CF0030A3E
:100DF00001E0CBD50101898320EE03F0DF51D92634
:100E0000E051DA22DF38E832070B3F6E010E316F16
:100E1000BCD520EE03F0DF51D926E051DA22DF38CD
:100E2000E832070B3F6E010E316F20EE01F0DF510B
:100E3000D926E051DA22DF50C76FC705DC6F410EBB
:100E4000DC61A3D5DC5101E1A0D5030E0001616F87
:100E5000000E606FDDC162F0DEC163F0DCC164F0E2
:100E6000656BBAEC2AF0DCC133F18FD520EE03F0CC
:100E7000DF51D926E051DA22DF38E832070B3F6E26
:100E8000010E316FE3D00201A26B020E0001616F0F
:100E9000A30E606F010E636FF50E626F656B0A0E35
:100EA000646F84EC29F00201AD6B020E0101BC6F8E
:100EB000A10EBB6F010E306EF50E2F6EE2EC2BF023
:100EC000030E2F240101BD6F000E3020BE6FCCEC4D
:100ED00012F05BD5010E0201A26F020E0001616FDC
:100EE000A30E606F570E0101C76F010EC86FC7C117
:100EF00062F0C8C163F00001656B080E646FBAEC64
:100F00002AF0020E0101BC6FA10EBB6FBE6B0A0E70
:100F1000BD6FCCEC12F039D5020E0201A26F020EA9
:100F20000001616FA30E606F6B0E0101C76F010EB0
:100F3000C86FC7C162F0C8C163F00001656B070EDE
:100F4000646FBAEC2AF0020E0101BC6FA10EBB6FF8
:100F5000BE6B090EBD6FCCEC12F017D5030E02016B
:100F6000A26F020E0001616FA30E606F840E01017B
:100F7000C76F070EC86FC7C162F0C8C163F0000138
:100F8000656B080E646FBAEC2AF0BBD7040E020141
:100F9000A26F020E0001616FA30E606F010E636FFE
:100FA000800E626F656B040E646FBAEC2AF0020E5D
:100FB0000101BC6FA10EBB6FBE6B060EBD6FCCEC0A
:100FC00012F0E3D4010E00016D6F510E6C6F7FECD7
:100FD00021F06CC0D5F16DC0D6F16EC0D7F16FC0F5
:100FE000D8F1D5C160F0D6C161F0D7C162F0D8C1E7
:100FF00063F0E80E646F030E656F000E666B676B3F
:101000004BEC28F060C051F161C052F162C053F165
:1010100063C054F1050E0201A26F020E0001616F60
:10102000A30E606F010E636F490E626F656B0C0E4D
:10103000646FBAEC2AF0020E0101BC6FA10EBB6F07
:10104000BE6B0E0EBD6FCCEC12F09FD4DDC1D9FF8C
:10105000DEC1DAFFDF5001E116D7010A01E13AD71C
:10106000030A01E159D7010A01E178D7070A8EE0A6
:10107000010AA8E08AD436052AE1366B2F51DDC17A
:10108000D9FFDEC1DAFFDF621AD0080E0001656FFA
:10109000CC0E646F010E666F676FD2EC1BF064C0FC
:1010A000D1F165C0D2F1010180AF09D0F90E000184
:1010B0008F6FBB0E8E6F010E906F0FEC28F0010149
:1010C0002F6BD251D11102E08C8A01D08C9A3F6BE8
:1010D0005CD43F2B630E3F6558D4000E2F6A4FEC53
:1010E00027F0F5D720EE03F0DF51D926E051DA22C0
:1010F000DF38E832070B3F6E010E316F010E000141
:10110000616F5F0E606FDDC162F0DEC163F0656B21
:101110000A0E646FBAEC2AF001015FA116D0759D2A
:101120006339E832070B020AD8B45CA10ED0768F7F
:10113000010E416E81A309D0F90E00018F6F830E5D
:101140008E6F010E906F0FEC28F00101660567119C
:10115000D8B481A31AD4F90E00018F6FD50E8E6F0B
:10116000010E906F0FEC28F010D4010120EE03F077
:10117000DF51D926E051DA22DF501F0B010A01E1CD
:101180004CD5030A01E172D6010A01E1E6D5070A4E
:10119000A9E0020A01E1AED50E0A01E16CD7010A0D
:1011A00098E0030A01E135D6C5EF04F0ECEF0CF04E
:1011B0004BEC2CF0010E3E6F010C30050AE163513F
:1011C0001F0B07E164511F0B04E165511F0BD8B4DD
:1011D000120000015E90010ED2EC2CF0020E010113
:1011E0003E6F020C00015EA01200000177EC2AF0B5
:1011F00090C022F191C023F15E90610E0101225D49
:10120000090E235932E3F00E225D0A0E23592DE216
:101210003A6747D0010E3A6F305102E060A51ED008
:1012200081A709D0FC0E00018F6F510E8E6F010E49
:10123000906F0FEC28F0010158855C85010EBC6FA2
:10124000550EBB6FBE6B0A0EBD6FCCEC12F00101E8
:10125000589560A503D07681010E416E010E306E67
:101260008C0E2F6E7EEC2CF01CD03A051AE13A6BF6
:1012700081A709D0F70E00018F6FF60E8E6F010E59
:10128000906F0FEC28F0010158855C95010EBC6F42
:10129000550EBB6FBE6B0A0EBD6FCCEC12F0010198
:1012A0005895010E00016D6F8C0E6C6FF40E6E6F11
:1012B000010E6F6F000E706B716BF3EC22F0000982
:1012C00019E001013A0516E18990010E306E8C0E8D
:1012D0002F6E7EEC2CF0300504E1020EE82EFED7D6
:1012E00007D0030EC76F970EE82EFED7C72FFCD787
:1012F00000D08980030ED2EC2CF0030E01013E6F6A
:10130000030C00015EA01200000177EC2AF090C0EF
:1013100022F191C023F15E90610E0101225D090E60
:10132000235932E3F00E225D0A0E23592DE23B676A
:1013300047D0010E3B6F305102E060A71ED081A75D
:1013400009D0FC0E00018F6F640E8E6F010E906F3E
:101350000FEC28F0010158875C87010EBC6F550E19
:10136000BB6FBE6B0A0EBD6FCCEC12F0010158973B
:1013700060A703D07683010E416E010E306E900E91
:101380002F6E7EEC2CF01CD03B051AE13B6B81A745
:1013900009D0F80E00018F6F160E8E6F010E906F40
:1013A0000FEC28F0010158875C97010EBC6F550EB9
:1013B000BB6FBE6B0A0EBD6FCCEC12F001015897EB
:1013C000010E00016D6F900E6C6FF40E6E6F010ECA
:1013D0006F6F000E706B716BF3EC22F0000919E077
:1013E00001013B0516E18994010E306E900E2F6EBF
:1013F0007EEC2CF0300504E1020EE82EFED707D07B
:10140000030EC76F970EE82EFED7C72FFCD700D06C
:101410008984090ED2EC2CF0060E01013E6F060CF9
:1014200000015EA01200000177EC2AF090C022F1CA
:1014300091C023F15E90610E0101225D090E2359D6
:1014400032E3F00E225D0A0E23592DE23C6747D0AD
:10145000010E3C6F305102E060A91ED081A709D077
:10146000FC0E00018F6F770E8E6F010E906F0FECE8
:1014700028F0010158895C89010EBC6F550EBB6FC5
:10148000BE6B0A0EBD6FCCEC12F00101589960A939
:1014900003D07685010E416E010E306E940E2F6ED4
:1014A0007EEC2CF01CD03C051AE13C6B81A709D0E6
:1014B000F80E00018F6F360E8E6F010E906F0FECDD
:1014C00028F0010158895C99010EBC6F550EBB6F65
:1014D000BE6B0A0EBD6FCCEC12F001015899010EE3
:1014E00000016D6F940E6C6FF40E6E6F010E6F6FD6
:1014F000000E706B716BF3EC22F0000919E0010132
:101500003C0516E18998010E306E940E2F6E7EEC2C
:101510002CF0300504E1020EE82EFED707D0030EB2
:10152000C76F970EE82EFED7C72FFCD700D089884B
:10153000060ED2EC2CF0050E01013E6F050C0001E9
:101540005EA01200000177EC2AF090C022F191C059
:1015500023F15E90610E0101225D090E235932E3F1
:10156000F00E225D0A0E23592DE23D6747D0010E91
:101570003D6F305102E060AB1ED081A709D0FC0E58
:1015800000018F6F8A0E8E6F010E906F0FEC28F0A6
:101590000101588B5C8B010EBC6F550EBB6FBE6B8F
:1015A0000A0EBD6FCCEC12F00101589B60AB03D06A
:1015B0007687010E416E010E306E980E2F6E7EEC16
:1015C0002CF01CD03D051AE13D6B81A709D0F80E27
:1015D00000018F6F560E8E6F010E906F0FEC28F08A
:1015E0000101588B5C9B010EBC6F550EBB6FBE6B2F
:1015F0000A0EBD6FCCEC12F00101589B010E0001E8
:101600006D6F980E6C6FF40E6E6F010E6F6F000EA3
:10161000706B716BF3EC22F0000919E001013D05DC
:1016200016E18D90010E306E980E2F6E7EEC2CF030
:10163000300504E1020EE82EFED707D0030EC76F77
:10164000970EE82EFED7C72FFCD700D08D80090E4D
:10165000D2EC2CF0E1D600015EA01200000177EC84
:101660002AF0905101012627000191510101272301
:101670005E90382B070E38659DD5D89027332633DA
:10168000D89027332633D890273326339A0E00017B
:10169000736F0D0E746F410E756F26C168F027C110
:1016A00069F05DEC2CF068C070F069C071F06AC040
:1016B00072F0FFEC21F070C081F071C082F072C056
:1016C00083F067EC23F081C026F182C027F101018D
:1016D00026511E5D2F6E27511F59306E0EEC2CF0D7
:1016E0002FC0C9F130C0CAF11E0E0101C95D000E44
:1016F000CA593FE36B8126C16CF127C16DF126C148
:101700001EF127C11FF1010EBC6F690EBB6FBE6BCE
:10171000090EBD6FCCEC12F001016B9130050FE1A9
:1017200063511F0B0CE063511F0BC76FC86BC75190
:10173000C95DC851CA59D8B07585010E416E81A9DD
:1017400018D0020E0001766F000E756FFA0E786FDA
:10175000090E776F26C179F027C17AF043EC10F0BB
:10176000020E00018F6F000E8E6F010E906F0FEC56
:1017700028F00101266B276B386B1CD500015EA099
:101780001200000177EC2AF0905101012827000196
:101790009151010129235E90392B070E396580D0C4
:1017A000D89029332833D89029332833D890293337
:1017B00028339A0E0001736F0D0E746F410E756F12
:1017C00028C168F029C169F05DEC2CF068C070F0A8
:1017D00069C071F06AC072F0FFEC21F070C081F056
:1017E00071C082F072C083F067EC23F081C028F1F1
:1017F00082C029F101012851205D2F6E2951215904
:10180000306E0EEC2CF02FC0C9F130C0CAF11E0EA4
:101810000101C95D000ECA593FE36B8328C16EF117
:1018200029C16FF128C120F129C121F1010EBC6F3E
:10183000690EBB6FBE6B090EBD6FCCEC12F00101DF
:101840006B9330050FE164511F0B0CE064511F0BCB
:10185000C76FC86BC751C95DC851CA59D8B0758523
:10186000010E416E81A918D0020E0001766F000EA4
:10187000756FFA0E786F220E776F28C179F029C143
:101880007AF043EC10F0020E00018F6F000E8E6FA5
:10189000010E906F0FEC28F00101286B296B396B5A
:1018A0000D0ED2EC2CF0080E3E6F080C00015EA06D
:1018B0001200000177EC2AF0905101012427000169
:1018C0009151010125235E90372B070E376572D4A5
:1018D000D89025332433D89025332433D89025331A
:1018E0002433CD0E0001736F6C0E746F400E756F54
:1018F00024C168F025C169F05DEC2CF068C070F07F
:1019000069C071F06AC072F0FFEC21F070C081F024
:1019100071C082F072C083F067EC23F081C024F1C3
:1019200082C025F1010124511C5D2F6E25511D59E6
:10193000306E0EEC2CF02FC0C9F130C0CAF11E0E73
:101940000101C95D000ECA593FE36B8524C170F1E6
:1019500025C171F124C11CF125C11DF1010EBC6F1F
:10196000690EBB6FBE6B090EBD6FCCEC12F00101AE
:101970006B9530050FE165511F0B0CE065511F0B96
:10198000C76FC86BC751C95DC851CA59D8B07585F2
:10199000010E416E81A918D0020E0001766F000E73
:1019A000756FF90E786F2C0E776F24C179F025C111
:1019B0007AF043EC10F0020E00018F6F000E8E6F74
:1019C000010E906F0FEC28F00101246B256B376B33
:1019D000DAEF08F03E6B120001013E5102E1D8EF50
:1019E00008F0010A02E1DDEF08F0030A02E1F2EF7C
:1019F00008F0010A01E185D4070A01E111D5010AC5
:101A000001E19DD5030A01E126D6010A01E1B6D61E
:101A10000F0A01E14BD7DED70101EC6BED6BE86BF0
:101A2000EB6B24D3010E00016D6FA00E6C6F010EE5
:101A30006E6F000E6F6B706B716BF3EC22F0000930
:101A400004E10101300501E019D30101010E306EFE
:101A5000A00E2F6E7EEC2CF08150010BC76FC86B6F
:101A6000090ED890C737C837E82EFBD78130E83247
:101A7000010BCA6FC96B8230010BCB6FCC6B070EA9
:101A8000D890CB37CC37E82EFBD78250010BCD6FE7
:101A9000CE6B060ED890CD37CE37E82EFBD78230EE
:101AA000E832010BCF6FD06B050ED890CF37D0370F
:101AB000E82EFBD78350010BD16FD26BD13BD23BC9
:101AC000F00ED217D1510F0BD213F00ED117833075
:101AD000010BD36FD46BD890D337D437D890D3378A
:101AE000D437D890D337D4378330E832E832010B7B
:101AF000D56FD66BD890D537D637D890D537D6375F
:101B00008238E832010BD76FD890D735D86FD96BB0
:101B1000D937D551D811DA6FD651D911DB6FD351DE
:101B2000DA11DC6FD451DB11DD6FD151DC11DE6FC6
:101B3000D251DD11DF6FCF51DE11E06FD051DF11D7
:101B4000E16FCD51E011E26FCE51E111E36FCB5166
:101B5000E211E46FCC51E311E56F8330E832010B01
:101B6000E413C951E411E66FCA51E511E76FC7519B
:101B7000E611E96FC851E711EA6FE9C160F00001B1
:101B8000EAC161F0626B636B000E646BBFEC1AF02C
:101B900060C0ECF161C0EDF10101F40502E1EC6916
:101BA000ED69EC99EC9BEC9DEC9FED51EC1101E1A2
:101BB00065D2D890EC31010BEB6FEB052EE1D8909C
:101BC000E931010BFF0AC76FC7475B51C719FD0B0E
:101BD000C7195B6F57835FA304D07481010E416EF8
:101BE000E86F80A51AD0020E0001766F000E756FA7
:101BF000FD0E786F9B0E776F01015B31010B0001C9
:101C0000796F7A6B43EC10F0020E00018F6F000EBB
:101C10008E6F010E906F0FEC28F00101EC41E8424D
:101C20003F0B010BEB6FEB0531E1E941E8423F0B64
:101C3000010BFF0AC76FC747C7475B51C719FB0BAB
:101C4000C7195B6F57855FA504D07483010E416E81
:101C5000E86F80A51BD0020E0001766F000E756F35
:101C6000FD0E786FAB0E776F01015B31E832010B2F
:101C70000001796F7A6B43EC10F0020E00018F6F58
:101C8000000E8E6F010E906F0FEC28F00101EC3901
:101C9000E8461F0B010BEB6FEB0533E1E939E84632
:101CA0001F0B010BFF0AC76FC747C747C7475B51E9
:101CB000C719F70BC7195B6F57875FA704D07485E7
:101CC000010E416EE86F80A51CD0020E0001766FF8
:101CD000000E756FFD0E786FBB0E776F01015B31E3
:101CE000E832E832010B0001796F7A6B43EC10F0B7
:101CF000020E00018F6F000E8E6F010E906F0FECC1
:101D000028F00101EC390F0B010BEB6FEB052EE115
:101D1000E9390F0B010BFF0AC76FC73B5B51C719AE
:101D2000EF0BC7195B6F57895FA904D07487010E49
:101D3000416EE86F80A51AD0020E0001766F000E8A
:101D4000756FFD0E786FCB0E776F01015B39010B5C
:101D50000001796F7A6B43EC10F0020E00018F6F77
:101D6000000E8E6F010E906F0FEC28F00101EC3920
:101D7000E842070B010BEB6FEB0531E1E939E84273
:101D8000070B010BFF0AC76FC73BC7475B51C7195A
:101D9000DF0BC7195B6F578B5FAB04D07489010EE3
:101DA000416EE86F80A51BD0020E0001766F000E19
:101DB000756FFD0E786FDB0E776F01015B39E832CE
:101DC000010B0001796F7A6B43EC10F0020E0001F9
:101DD0008F6F000E8E6F010E906F0FEC28F00101D7
:101DE000EC45E846030B010BEB6FEB0533E1E945EE
:101DF000E846030B010BFF0AC76FC73BC747C7473E
:101E00005B51C719BF0BC7195B6F578D5FAD04D00E
:101E1000748B010E416EE86F80A51CD0020E00018C
:101E2000766F000E756FFD0E786FEB0E776F010108
:101E30005B39E832E832010B0001796F7A6B43ECD1
:101E400010F0020E00018F6F000E8E6F010E906F6A
:101E50000FEC28F00101EC45010BEB6FEB052FE1D6
:101E6000E945010BFF0AC76FC733C7335B51C71979
:101E70007F0BC7195B6F578F5FAF04D0748D010E56
:101E8000416EE86F80A51BD0020E0001766F000E38
:101E9000756FFD0E786FFB0E776F01015B35E836CD
:101EA000010B0001796F7A6B43EC10F0020E000118
:101EB0008F6F000E8E6F010E906F0FEC28F00101F6
:101EC000EC51010BEB6FEB052CE1E9C1C7F1010E01
:101ED000C7175B51C719FE0BC7195B6F578160A10C
:101EE00004D0748F010E416EE86F80A71AD0020EE5
:101EF0000001766F000E756FFE0E786F0B0E776F18
:101F000001015B51010B0001796F7A6B43EC10F01A
:101F1000020E00018F6F000E8E6F010E906F0FEC9E
:101F200028F00101ED51010BEB6FEB055CE1EA518B
:101F3000010BFF0AC76F5C19FE0BC7195C6F588154
:101F400060A304D07581010E416EE86F80A534D086
:101F5000020E0001766F000E756FF80E786FF00EAE
:101F6000776F01015C51010B0001796F7A6B43ECD3
:101F700010F001015CA10CD0020E0001616F000E97
:101F8000606FFC0E636F3D0E626F54EC2AF00BD055
:101F9000020E0001616F000E606FFB0E636F170E83
:101FA000626F54EC2AF0020E00018F6F000E8E6FEC
:101FB000010E906F0FEC28F001015FA1306713D084
:101FC0005CB12C6710D0F4670ED0010E406EF36F39
:101FD00081A309D0F60E00018F6F1C0E8E6F010ECB
:101FE000906F0FEC28F00101ED51EC1119E0305128
:101FF000D8A4E80515E1010EBC6F550EBB6FBE6B92
:102000000A0EBD6FCCEC12F0010E0001616F570E8D
:10201000606F636B626B656B040E646FCBEC2BF0CF
:102020000101F46B2BD0010E306EA40E2F6E7EECEE
:102030002CF0010E17D0010E00016D6FA40E6C6F15
:10204000050E6E6F000E6F6B706B716BF3EC22F010
:10205000000914E00101010E306EA00E2F6E7EEC1F
:102060002CF0020E446F0AD0446B08D04451DBE0E0
:10207000010AE1E0030A01E1D5D4F6D70101306796
:102080001200B1EF1EF0790E856F6DD28951250ACD
:1020900009E075C0D9FF76C0DAFF89C0DFFF754B54
:1020A000762B61D2876B886B866B03D08685774BE6
:1020B000782B77C0F6FF78C0F7FF000EF86E0800A7
:1020C000F550300AF3E077C0F6FF78C0F7FF000E56
:1020D000F86E0800F5508DEC2CF001E2ABD0876B68
:1020E000886B87C060F088C061F0636B0A0E626F16
:1020F000F8EC2BF060C087F061C088F077C0F6FF85
:1021000078C0F7FF000EF86E0800F5CF7FF0D00E14
:102110007F25806F816BFF0E81238051872781513E
:102120008823774B782B77C0F6FF78C0F7FF000E37
:10213000F86E0800F5508DEC2CF07CE3D2D7868940
:1021400079D0868F9BD08551D96EDA6ADECF8AF03E
:10215000DDCF8BF0020E85278B518A1104E1FE0E34
:102160008B6FF70E8A6F8C6B8D6B03D000018C4BDD
:102170008D2B8AC07FF08BC080F08C517F278D51D2
:1021800080237FC0F6FF80C0F7FF000EF86E0F0EB1
:10219000F76403D00800F55005D0F6CFE9FFF7CF7C
:1021A000EAFFEF500009E2E1000187518C5D8851A0
:1021B0008D5907E220EE8CF0DE50875FDD50885BA2
:1021C0000BD0876B886B08D075C0D9FF76C0DAFF5B
:1021D000200EDF6E754B762B8707D8A0880700018D
:1021E0008729D8B488291CE0EFD78AC0F6FF8BC0B6
:1021F000F7FF000EF86E75C0D9FF76C0DAFF0F0E3C
:10220000F76403D00800F55005D0F6CFE9FFF7CF0B
:10221000EAFFEF50DF6E00018A4B8B2B754B762B5C
:102220008C07D8A08D0700018C29D8B48D2901E135
:102230009AD1DBD777517F6F7851806F774B782BAE
:102240007FC0F6FF80C0F7FF000EF86E0800F5CFE4
:1022500089F00001895101E198D1580A01E171D753
:102260003C0A0CE00D0A0AE0050A01E168D71F0AE2
:1022700001E169D70B0A01E164D775D186BF2AD085
:1022800086A90DD08551D96EDA6ADECF8AF0DECF0D
:102290008BF0DECF8CF0DECF8DF0040E0DD08551AB
:1022A000D96EDA6ADECF8AF0DDCF8BF0000E8BBFFD
:1022B000FF0E8C6F8D6F020E85278DAF68D0030ED9
:1022C00086138D1F8C1F8B1F8A6D000E8B238C2312
:1022D0008D235DD086A90DD08551D96EDA6ADECF07
:1022E0008AF0DECF8BF0DECF8CF0DECF8DF0040EE7
:1022F0000ED08551D96EDA6ADECF7FF0DDCF80F067
:102300007FC08AF080C08BF08C6B8D6B020E8527AE
:102310003ED0010E896F8951040DD40EF324F66E60
:10232000F50EF420F76EF86A000EF8220900F55059
:102330008A5D0900F5508B590900F5508C59090048
:10234000F5508D5929E3892B89510A0A25E0E3D7F5
:10235000010E896F8951040DFC0EF324F66EF50E03
:10236000F420F76EF86A000EF8220900F5508A5D35
:102370000900F5508B590900F5508C590900F550AA
:102380008D590AE3892B8951080A06E0E3D7865163
:10239000800BBFE0800ADCE08851871106E086519F
:1023A000030B03E08707D8A08807800E89BF7F0E44
:1023B0007F6F8751895D8851800A7F5907E2895173
:1023C000875F000E89BFFF0E885B02D0876B886B2A
:1023D00086A51BD08651030B08E075C0D9FF76C0D7
:1023E000DAFF2D0EDF6E754B762B885187112AE0B0
:1023F00075C0D9FF76C0DAFF300EDF6E754B762BD5
:102400008707D8A088070001F0D7885187110FE00F
:1024100075C0D9FF76C0DAFF200EDF6E754B762BC4
:102420008707D8A08807000188518711F1E18651FC
:10243000030B08E075C0D9FF76C0DAFF2D0EDF6E02
:10244000754B762B8951836F846B83BF840783D050
:1024500083C07FF084C080F0D8907F378037D890D9
:102460007F378037D40E7F25F66EF50E8021F76E0C
:10247000F86A000EF8220900F5CF64F00900F5CFE4
:1024800065F00900F5CF66F00A00F5CF67F08AC065
:1024900060F08BC061F08CC062F08DC063F04BECDB
:1024A00028F060C06DF061C06EF062C06FF063C074
:1024B00070F00A0E716F000E726B736B746B53ECDD
:1024C00029F06D51300F896F3ED08AC060F08BC00B
:1024D00061F08CC062F08DC063F083C07FF084C077
:1024E00080F0D8907F378037D8907F378037FC0EC8
:1024F0007F25F66EF50E8021F76EF86A000EF82241
:102500000900F5CF64F00900F5CF65F00900F5CFBB
:1025100066F00A00F5CF67F04BEC28F060510F0B26
:10252000826FF90E8225F66EF76AFC0EF722F86AC2
:10253000000EF8220800F5CF89F005D08651800BF7
:1025400087E0800AC2E075C0D9FF76C0DAFF89C093
:10255000DFFF754B762B8307D8A084070001832902
:10256000D8B48429EBE177517F6F7851806F774B36
:10257000782B7FC0F6FF80C0F7FF000EF86E0800D2
:10258000F5CF89F00001896781D575C0D9FF76C084
:10259000DAFF000EDF6E000CBBC1C5F1BCC1C6F195
:1025A0000400010180ADAAD0FC0E00018F6FD50E92
:1025B0008E6F000E906B0FEC28F0C5C162F0C6C1A3
:1025C00063F0BDC164F0BEC165F00001B1EC29F05B
:1025D0000D0EC5EC2CF00A0EC5EC2CF0020E00011D
:1025E000766F000E756FFB0E786F000E776F86C7E3
:1025F00079F087C77AF043EC10F0020E00018F6F7C
:10260000000E8E6F010E906F0FEC28F0020E00018D
:10261000766F000E756FFB0E786F990E776F84C71B
:1026200079F085C77AF043EC10F0020E00018F6F4D
:10263000000E8E6F010E906F0FEC28F0020E00015D
:10264000766F000E756FFA0E786FE80E776F8AC797
:1026500079F08BC77AF043EC10F0020E00018F6F17
:10266000000E8E6F010E906F0FEC28F0020E00012D
:10267000766F000E756FFC0E786F290E776F88C726
:1026800079F089C77AF043EC10F0020E00018F6FE9
:10269000000E8E6F010E906F0FEC28F0020E0001FD
:1026A000766F000E756FFE0E786F390E776F80C7EC
:1026B00079F081C77AF043EC10F0020E00018F6FC1
:1026C000000E8E6F010E906F0FEC28F0020E0001CD
:1026D000766F000E756FFE0E786F2A0E776F82C7C9
:1026E00079F083C77AF043EC10F0020E00018F6F8F
:1026F000000E8E6F010E906F0FEC28F0020E01019C
:10270000BD25BF6F000EBE21C06F27EE86F0DECF65
:10271000C1F1DDCFC2F1BF51C15DC051C25906E266
:1027200027EE8AF0DE2A000EDD22000C2E0EBD5DA3
:10273000010EBE59F5E227EE80F0DECFBFF1DDCF0E
:10274000C0F1400EBF25D96E030EC021DA6EBDC1A7
:10275000DFFF27EE80F0DE2A000EDD2280C760F06A
:1027600081C761F0040E0001636F400E626F1BECC5
:102770002BF060C080F761C081F727EE80F0DECFDC
:10278000BFF1DDCFC0F1400E0101BF25D96E030EB0
:10279000C021DA6EBE51DF6E27EE80F0DE2A000E19
:1027A000DD2280C760F081C761F0040E0001636F15
:1027B000400E626F1BEC2BF060C080F761C081F7A8
:1027C000000E9CEC2CF00101BF6FC5C1D9FFC6C142
:1027D000DAFFDF50C06FC16BC0C1D9FFC1C1DAFFE2
:1027E000BF3BBF47DF50BF191F0BBF19DF6EC36B65
:1027F000C46B2DD00400C5C1D9FFC6C1DAFF17EEE6
:1028000080F0E6CFBFF1E5CFC0F1400E0101BF255A
:10281000E16E030EC021E26EDFCFE7FFC54BC62B92
:1028200027EE80F0DE2A000EDD2280C760F081C72F
:1028300061F0040E0001636F400E626F1BEC2BF021
:1028400060C080F761C081F70101C34BC42BBD514B
:10285000C35DBE51C459CEE30400020E0101BD2583
:10286000BF6F000EBE21C06F27EE84F0BF51DE2681
:10287000C051DD22020EBD25BF6F000EBE21C06F0C
:1028800027EE86F0BF51DE5EC051DD5A27EE86F09E
:10289000DECFBFF1DDCFC0F1330EBF5D000EC059FA
:1028A0000AE2436709D027EE88F0DE2A000EDD2217
:1028B000010E436F01D0436B80AD90D0020E00013A
:1028C000766F000E756FFA0E786FD00E776F86C731
:1028D00079F087C77AF043EC10F0020E00018F6F99
:1028E000000E8E6F010E906F0FEC28F0020E0001AB
:1028F000766F000E756FFB0E786F2E0E776F84C7A4
:1029000079F085C77AF043EC10F0020E00018F6F6A
:10291000000E8E6F010E906F0FEC28F0020E00017A
:10292000766F000E756FFA0E786F6D0E776F8AC72F
:1029300079F08BC77AF043EC10F0020E00018F6F34
:10294000000E8E6F010E906F0FEC28F0020E00014A
:10295000766F000E756FFB0E786FAE0E776F88C7BF
:1029600079F089C77AF043EC10F0020E00018F6F06
:10297000000E8E6F010E906F0FEC28F0020E00011A
:10298000766F000E756FFD0E786F2B0E776F80C718
:1029900079F081C77AF043EC10F0020E00018F6FDE
:1029A000000E8E6F010E906F0FEC28F0020E0001EA
:1029B000766F000E756FFD0E786F1B0E776F82C7F6
:1029C00079F083C77AF043EC10F0020E00018F6FAC
:1029D000000E8E6F010E906F0FEC28F08C8A1200A3
:1029E000050E0101C76FC86BC96BCA6B350501E0E5
:1029F000E0D1580EC76F020EC86FC96BCA6BD9D130
:102A0000F3051FE142661DD0F36B8C9881A309D0BA
:102A1000F70E00018F6F3E0E8E6F010E906F0FEC60
:102A200028F00101010E306EB00E2F6E7EEC2CF0FE
:102A3000050E486F81A3050CFB0E00018F6F440E3D
:102A400051D12D05D8A412002D6B8C8881A31200C2
:102A5000F60E00018F6FF00E45D1010E00016D6F73
:102A6000B00E6C6F2C0E6E6F010E6F6F000E706BE0
:102A7000716BF3EC22F00009D8B41200040E0101CE
:102A8000486F81A3040CF90E00018F6FEF0E2AD15D
:102A90008C8E010E306EB00E2F6E7EEC2CF0060E7A
:102AA000486F81A3060CFB0E00018F6FC30E1AD175
:102AB000010E00016D6FB00E6C6FC80E6E6F000ED0
:102AC0006F6B706B716BF3EC22F00009D8B41200DD
:102AD0008C9E0101010E306EB00E2F6E7EEC2CF03C
:102AE000070E486F81A3070CFA0E00018F6F9F0E2F
:102AF000F9D0010E00016D6FB00E6C6FC7C160F0B0
:102B0000C8C161F0C9C162F0CAC163F0640E646FEC
:102B1000000E656B666B676B2EEC2AF060C06EF082
:102B200061C06FF062C070F063C071F0F3EC22F02E
:102B3000000904E101012C05D8A4120001012C05B3
:102B400001E0ADD0010E00016D6F510E6C6F7FEC96
:102B500021F06CC0CBF16DC0CCF16EC0CDF16FC077
:102B6000CEF1CBC160F0CCC161F0CDC162F0CEC17D
:102B700063F0E80E646F030E656F000E666B676BA3
:102B80004BEC28F060C051F161C052F162C053F1CA
:102B900063C054F1BD0E736F630E746F3C0E756F9E
:102BA00051C168F052C169F053C16AF054C16BF071
:102BB00008EC2AF068C070F069C071F06AC072F069
:102BC000FFEC21F070C081F071C082F072C083F020
:102BD00067EC23F081C0CBF182C0CCF183C0CDF192
:102BE00084C0CEF10101CB51515FCC51525BCD512C
:102BF000535BCE51545B020E0001616FB90E606FE2
:102C0000010E636F490E626F656B0C0E646FBAEC58
:102C10002AF0020E0101BC6FB70EBB6FBE6B0E0E29
:102C2000BD6FCCEC12F0010181A30BD02C0509E1A2
:102C3000FA0E00018F6F860E8E6F010E906F0FECF3
:102C400028F00101470502E1476B768D76BF81A32D
:102C500009D0F80E00018F6F950E8E6F010E906FE8
:102C60000FEC28F00101010EBC6F720EBB6FBE6B42
:102C7000050EBD6FCCEC12F0010E0001616F740EF9
:102C8000606F636B626B656B030E646FCBEC2BF054
:102C90000101758D2D6B020E0101486F020C8C88AD
:102CA00081A309D0F60E00018F6F9F0E8E6F010E6B
:102CB000906F0FEC28F00101010E306EB00E2F6EF8
:102CC0007EEC2CF0080E486F81B32C67080C5CA1D9
:102CD00005D0F60E00018F6F740E04D0F60E0001C1
:102CE0008F6F490E8E6F010E906F0FEF28F0010E5F
:102CF00000016D6FB00E6C6FF40E6E6F010E6F6F92
:102D0000000E706B716BF3EC22F00009D8B4120066
:102D10008C98010181A309D0F70E00018F6F640E1A
:102D20008E6F010E906F0FEC28F00101010E306ED6
:102D3000B00E2F6E7EEC2CF0090E486F090C010EC0
:102D400000016D6FB00E6C6F320E6E6F000E6F6B08
:102D5000706B716BF3EC22F00009D8B41200010E15
:102D60000101F36F476F81A396D7F70E00018F6FB4
:102D7000170E8E6F010E906F0FEC28F08CD7010E9E
:102D8000306EB00E2F6E7EEC2CF0010E486F010CF1
:102D9000010E00016D6FB00E6C6F140E6E6F000EA1
:102DA0006F6B706B716BF3EC22F00009D8B41200FA
:102DB00072D74851E4E0010AEBE0030A01E120D6B2
:102DC000060A01E165D6010A01E147D6030A01E1DD
:102DD0006FD6010A01E18DD60F0A89E0010AD8A455
:102DE0001200ADD7856B866B8B6B20EE34F07B5178
:102DF000D9267C51DA22DE50DD10D8B4120020EE44
:102E000032F07B51D9267C51DA22DE6ADD6A0BD0A2
:102E100020EE32F07B51D9267C51DA22DE2A000ED8
:102E2000DD22854B862B20EE32F07B51D9267C515A
:102E3000DA22DECF7DF0DDCF7EF07D517B25D96EAD
:102E40007E517C21DA6EDF505B0A14E020EE34F014
:102E50007B51D9267C51DA2210EE32F07B51E126EB
:102E60007C51E222E652DE52DD50E55C02E1DF50A9
:102E7000E75CCEE320EE34F07B51D9267C51DA2298
:102E800010EE32F07B51E1267C51E222E652DE5216
:102E9000DD50E55C02E1DF50E75C0AE320EE32F052
:102EA0007B51D9267C51DA22000EDE6EDD6E000CDD
:102EB00020EE32F07B51D9267C51DA22DECF7DF034
:102EC000DDCF7EF07D517B258C6F7E517C218D6F17
:102ED00020EE32F07B51D9267C51DA22DECF7DF014
:102EE000DDCF7EF0040E7D27000E7E2320EE32F033
:102EF0007B51D9267C51DA227DC0DEFF7EC0DDFF0A
:102F000020EE01F08C51D9268D51DA22DECF7DF0F2
:102F1000DDCF7EF020EE32F07B51D9267C51DA22D3
:102F2000DECF7FF0DDCF80F07F517B25816F805138
:102F30007C21826F7D518125836F7E518221846F38
:102F4000FF0E8325896FFF0E84218A6F20EE02F029
:102F50008951D9268A51DA22DF505D0A9FE18551D5
:102F60007B25606F86517C21616F20EE01F08C51D2
:102F7000D9268D51DA22DECF7DF0DDCF7EF0030E33
:102F80007D25626F000E7E21636F0FEC27F060C01D
:102F900087F061C088F089C0D9FF8AC0DAFFDE52AD
:102FA0008851DD1887C0E8FFD8B4DF1852E020EE62
:102FB00037F07B51D9267C51DA22DE2A000EDE2240
:102FC000DE22DD22D906D90620EE34F07B51D92647
:102FD0007C51DA22DE6ADD6A20EE32F07B51D9269E
:102FE0007C51DA22000EDE6EDD6E000C000E616F89
:102FF0008F0E606F20EE32F07B51D9267C51DA22A1
:10300000DECF7DF0DDCF7EF07D517B257F6F7E5161
:103010007C21806F7FC062F080C063F0656B040E1E
:10302000646FBAEC2AF0000E8FBB010E01012A6F0B
:10303000000E000190B7010E0101346F00019139BB
:103040000F0B01012B6F010E00018B6F0ED08B6BEC
:103050000CD020EE03F08C51D9268D51DA22DF50AE
:103060001F0B030AC3E00B0AF2E18B05D8A4120080
:10307000000E616F8E0E606F636B626B656B010E8D
:10308000646FCBEC2BF08E6B000E726F8E0E716F37
:10309000746B010E736F756B080E32EF24F00CD158
:1030A000200E99EC2AF0010E2F6E000E4FEC27F047
:1030B000010E2F6E4FEC27F0010E0001616F880E9C
:1030C000606F636B626B656B040E646FCBEC2BF00F
:1030D000010E0001616FBA0E606F636B626B656B0E
:1030E000010E646FCBEC2BF0010E0001616F5F0EDF
:1030F000606F636B626B656B0A0E646FCBEC2BF0D9
:10310000010E0001616FB80E606F636B626B656BDF
:10311000020E646FCBEC2BF0010E0001616F550EB7
:10312000606F636B626B656B0A0E646FCBEC2BF0A8
:10313000010E0001616F690E606F636B626B656BFE
:10314000090E646FCBEC2BF0010E0001616F720E63
:10315000606F636B626B656B050E646FCBEC2BF07D
:10316000010E0001616F770E606F636B626B656BC0
:10317000050E646FCBEC2BF0030E0001616F000EA7
:10318000606F636B626B656B400E646FCBEC2BF012
:103190000101B851E00B0509B86FB96B5551E00B4F
:1031A0000509556F010E566F6951E00B0509696FEE
:1031B000020E6A6F0201C551E00B0509C56F050ECD
:1031C000C66F01017251E00B0509726F060E736F35
:1031D0000201B751E00B0509B76F0A0EB86F010184
:1031E000496B4A6B4B6B4C6B4D6B4E6B4F6B506B23
:1031F000516B526B536B546B7751E00B0709776F30
:103200000201A151E00B0B09A16F5B0EE8CFC9F8D9
:103210005D0EE8CFFBF9D01C1F0BC76F020E00013B
:10322000616FC80E606F010E636FF50E626F656BA4
:103230000A0E646F84EC29F00201D16B020E0101C9
:10324000BC6FC50EBB6FBE6B0D0EBD6FCCEC12F02C
:10325000D0A002D0D0B20FD00101758B010E406E0C
:1032600081A309D0F80E00018F6F760E8E6F010ECC
:10327000906F0FEC28F00101010EBC6F720EBB6F56
:10328000BE6B050EBD6FCCEC12F0010E0001616F3C
:10329000740E606F636B626B656B030E646FCBECD7
:1032A0002BF01F0ED012010E0101406F0CD0DFEC8D
:1032B00020F009D0406B07D00101405101E1F0D668
:1032C000010AF5E0F7D700015EA21200010180A912
:1032D0001AD0FE0E00018F6F560E8E6F000E906B8F
:1032E0000FEC28F0070E0001636F8C0E626FC1C8EF
:1032F00064F0C2C865F0B1EC29F00D0EC5EC2CF0FD
:103300000A0EC5EC2CF079EC04F00001FF6FFF67AA
:1033100011D0010135050EE1356B010E326F81A52B
:1033200009D0F80E00018F6FD20E8E6F010E906FD4
:103330000FEC28F0000EE8CFBFF8E8CFC0F8E8CFD8
:10334000C1F8E8CFC2F8C68800015E92000C0DD12A
:1033500001011B51181119111A113AE05A0E0001FE
:103360006C6F000E6D6F0F0E6D6F5F0E6C656D6B89
:1033700018C160F019C161F01AC162F01BC163F09D
:10338000640E646F000E656B666B676B2EEC2AF043
:1033900060C06EF061C06FF062C070F063C071F029
:1033A000F3EC22F0000914E001017589186B196B28
:1033B0001A6B1B6B81A309D0FB0E00018F6FED0E02
:1033C0008E6F010E906F0FEC28F0CDEC23F0496A60
:1033D0004104D8A41200416A010181A309D0FC0E66
:1033E00000018F6F010E8E6F010E906F0FEC28F0B1
:1033F000CDEC23F0496A120001015FA11200010E19
:10340000306EB40E2F6E7EEC2CF080AB19D0FB0E1C
:1034100000018F6F5A0E8E6F000E906B0FEC28F02C
:10342000010E0001636F5F0E626F656B0A0E646FC1
:10343000B1EC29F00D0EC5EC2CF00A0EC5EC2CF009
:10344000010E496E010C01012C5111E0010E000129
:103450006D6FB40E6C6F700E6E6F170E6F6F000E87
:10346000706B716BF3EC22F00009D8B4120001010B
:1034700080AB09D0FE0E00018F6F1B0E8E6F010E08
:10348000906F0FEC28F0010160BF0CD08C8880ABEE
:1034900009D0FB0E00018F6F6F0E8E6F010E906FC3
:1034A0000FEC28F0010165511F0B0CE1898C80ABFA
:1034B00009D0FC0E00018F6F9D0E8E6F010E906F74
:1034C0000FEC28F0010160BD0DD08C8C80AB0CD0CE
:1034D000FE0E00018F6F480E8E6F010E906F0FEC85
:1034E00028F002D0F292F288010E0001616F840E82
:1034F000606F010E636F800E626F656B040E646F08
:10350000BAEC2AF00101806B816B826B836BD298DD
:103510008F0ED316DA0ED66ED586010E306F186B6D
:10352000196B1A6B1B6B625161111CE061C160F079
:1035300062C161F00001636B3C0E626FF8EC2BF02E
:1035400060C018F1010161C019F11A6B1B6B5A0EB2
:103550002F6E000E306E0F0E306E5F0E2F64306ACD
:103560007EEC2CF0020E496E020C495001E144D76A
:10357000010A01E168D7030AD8A41200E9D6796BE1
:103580007A6B7B6B7C6B6451040D100EF324D96E47
:10359000010EF420DA6EDECF65F0DECF66F0DECF0E
:1035A00067F0DECF68F00001605165197D6F6151F1
:1035B00066197E6F625167197F6F63516819806F5A
:1035C0000101300536E100016451040D100EF324B1
:1035D000D96E010EF420DA6E60C0DEFF61C0DEFF3E
:1035E00062C0DEFF63C0DEFF6451040D000EF324F1
:1035F000D96E010EF420DA6EDE6ADE6ADE6ADD6AFA
:103600006451040D0101080EF324D96E010EF4205B
:10361000DA6E000EDE6EDE6EDE6EDD6EDD52DD52C7
:103620007DC060F07EC061F07FC062F080C063F05A
:10363000000C00016451040D080EF324D96E010E34
:10364000F420DA6EDECF65F0DECF66F0DECF67F015
:10365000DECF68F06451040D000EF324D96E010E24
:10366000F420DA6E6551DE1A6651DE1A6751DE1AF1
:103670006851DD1A6451040D080EF324D96E010E51
:10368000F420DA6EFF0EDE1ADE1ADE1ADD1A64513D
:10369000040D000EF324D96E010EF420DA6E7D5174
:1036A000DE167E51DE167F51DE168051DD16645126
:1036B000040D080EF324D96E010EF420DA6E7D514C
:1036C000DE167E51DE167F51DE168051DD16645106
:1036D000040D080EF324D96E010EF420DA6EDECF4D
:1036E00065F0DECF66F0DECF67F0DECF68F06451C4
:1036F000040D000EF324D96E010EF420DA6EDECF35
:1037000069F0DECF6AF0DECF6BF0DECF6CF07DC00B
:103710006DF07EC06EF07FC06FF080C070F06D1FE6
:103720006E1F6F1F701F69516D11716F6A516E119D
:10373000726F6B516F11736F6C517011746F6551B3
:103740007111756F66517211766F67517311776FD2
:1037500068517411786F751F761F771F781F75C0B9
:1037600079F076C07AF077C07BF078C07CF0645155
:10377000040D100EF324D96E010EF420DA6E795187
:10378000DE1A7A51DE1A7B51DE1A7C51DD1ADD52C7
:10379000DD5279C060F07AC061F07BC062F07CC01D
:1037A00063F012006C6B6D6B706B716B27EE84F0C5
:1037B000DE50DD100CE127EE86F0DE50DD1004E176
:1037C000000E2F6A4FEC27F0646B656B120082C706
:1037D00070F083C771F0400E7025D96E030E712111
:1037E000DA6EDF506E6F6F6B704B712B70C060F0D4
:1037F00071C061F0040E636F400E626F1BEC2BF022
:1038000060C070F061C071F0400E7025D96E030E7B
:103810007121DA6EDF506F27704B712B70C060F032
:1038200071C061F0040E636F400E626F1BEC2BF0F1
:1038300060C070F061C071F027EE84F0DECF68F0F8
:10384000DDCF69F0FE0E68256A6FFF0E69216B6F90
:103850006B516A1105E1000E2F6A4FEC27F0B4D7C7
:103860002E0E6E5D010E6F5905E3000E2F6A4FECB0
:1038700027F0AAD727EE84F0DECF68F0DDCF69F01D
:10388000FE0E68256A6FFF0E69216B6F6E516A5DCF
:103890006F516B5905E33F0E6E5D040E6F5905E3E2
:1038A000000E2F6A4FEC27F08FD7400E7025D96E8F
:1038B000030E7121DA6EDF501F0BDBEC2AF00009DA
:1038C00005E1000E2F6A4FEC27F07ED7676705D021
:1038D0006EC064F06FC065F012006C6B6D6B20D031
:1038E000400E7025D96E030E7121DA6E64C0E1FFBF
:1038F00065C0E2FFDFCFE7FF704B712B644B652B98
:1039000070C060F071C061F0040E636F400E626FB2
:103910001BEC2BF060C070F061C071F06C4B6D2B34
:103920006E516C5D6F516D59DBE36605D1E1020E9E
:103930006E25686F000E6F21696F27EE84F0DECF71
:103940006AF0DDCF6BF068516A5D69516B5905E231
:10395000000E2F6A4FEC27F037D7020E6E25686FE6
:10396000000E6F21696F27EE84F06851DE5E6951A9
:10397000DD5A020E6E25686F000E6F21696F27EE0B
:1039800086F06851DE266951DD2227EE82F070C094
:10399000DEFF71C0DDFF84C764F085C765F01200EB
:1039A000156A166A196A1A6A27EE84F0DE50DD106D
:1039B0000CE127EE86F0DE50DD1004E1000E086A0F
:1039C000CFEC27F00D6A0E6A120082C719F083C788
:1039D0001AF0400E1924D96E030E1A20DA6EDF5049
:1039E000176E186A194A1A2A19C008F01AC009F085
:1039F000040E0B6E400E0A6E3AEC2BF008C019F064
:103A000009C01AF0400E1924D96E030E1A20DA6E7E
:103A1000DF501826194A1A2A19C008F01AC009F0EE
:103A2000040E0B6E400E0A6E3AEC2BF008C019F033
:103A300009C01AF027EE84F0DECF11F0DDCF12F0CE
:103A4000FE0E1124136EFF0E1220146E145013106C
:103A500005E1000E086ACFEC27F0B4D72E0E175CF4
:103A6000010E185805E3000E086ACFEC27F0AAD71C
:103A700027EE84F0DECF11F0DDCF12F0FE0E112420
:103A8000136EFF0E1220146E1750135C185014584A
:103A900005E33F0E175C040E185805E3000E086A94
:103AA000CFEC27F08FD7400E1924D96E030E1A20C1
:103AB000DA6EDF501F0BFBEC2AF0000905E1000E67
:103AC000086ACFEC27F07ED7106605D017C00DF03E
:103AD00018C00EF01200156A166A20D0400E192484
:103AE000D96E030E1A20DA6E0DC0E1FF0EC0E2FFA0
:103AF000DFCFE7FF194A1A2A0D4A0E2A19C008F02B
:103B00001AC009F0040E0B6E400E0A6E3AEC2BF050
:103B100008C019F009C01AF0154A162A1750155C8A
:103B200018501658DBE30F04D1E1020E1724116E72
:103B3000000E1820126E27EE84F0DECF13F0DDCFDA
:103B400014F01150135C1250145805E2000E086A6C
:103B5000CFEC27F037D7020E1724116E000E182075
:103B6000126E27EE84F01150DE5E1250DD5A020E06
:103B70001724116E000E1820126E27EE86F01150D9
:103B8000DE261250DD2227EE82F019C0DEFF1AC0B9
:103B9000DDFF84C70DF085C70EF01200DAD0000EED
:103BA000FFEC2CF02F6A010EB8EC2CF05B0EE8CF86
:103BB000FCF95D0EE8CF2EFB010E0101416F010CF7
:103BC00002019A050DE1020E00017C6F640E7B6F0D
:103BD000F2EC16F002019A6B966B976B986B996BEF
:103BE0000101320531E1326B010E0001616FC70E38
:103BF000606F636B626B656B050E646FCBEC2BF0D3
:103C00000101C751E00B0509C76F060EC86FCB8BCA
:103C1000010E0001726FC70E716F746B050E736F2A
:103C2000010E756F0101C7511F0B000132EC24F02A
:103C3000010181A509D0F90E00018F6F660E8E6F0C
:103C4000010E906F0FEC28F00101340553E1346B45
:103C500078812BC1FFF00001FF470101785100017D
:103C6000FF19E10BFF190101786F81A509D0F90E49
:103C700000018F6FA00E8E6F010E906F0FEC28F079
:103C80000101010EBC6F770EBB6FBE6B050EBD6FE1
:103C9000CCEC12F00101789181A52CD0FA0E000134
:103CA0008F6F3B0E8E6F000E906B0FEC28F00101B2
:103CB0002B050AE1FB0E00018F6F840E8E6F010E43
:103CC000906F0FEC28F016D02B51020A0AE1FD0E7E
:103CD00000018F6F0A0E8E6F010E906F0FEC28F0AF
:103CE00009D0FC0E00018F6FE70E8E6F010E906FF2
:103CF0000FEC28F001012A050DE12A6B888B81A5C4
:103D000009D0F90E00018F6F490E8E6F010E906F72
:103D10000FEC28F001013351D8B41200030E00015A
:103D2000726F000E716F33C173F0746B756B0A0E96
:103D300032EC24F00101336B81A51200FA0E000170
:103D40008F6FB80E8E6F010E906F0FEF28F0416BE2
:103D500012000101415101E122D7010A01E130D7EE
:103D6000F6D70F0EBB6FBC6BBD6BBE6B350501E0AC
:103D7000B4D0580EBB6F020EBC6FBD6BBE6BADD026
:103D8000010E306EA80E2F6E7EEC2CF0010E456FEA
:103D9000010C010E00016D6FA80E6C6F2C0E6E6F82
:103DA000010E6F6F000E706B716BF3EC22F0000967
:103DB000D8B412000101010E306EA80E2F6E7EECF9
:103DC0002CF0F290F286020E456F020C010E0001FB
:103DD0006D6FA80E6C6FBBC160F0BCC161F0BDC15E
:103DE00062F0BEC163F0640E646F000E656B666BBB
:103DF000676B2EEC2AF060C06EF061C06FF062C09D
:103E000070F063C071F0F3EC22F0000904E10101ED
:103E10002E05D8A412000101010E306EA80E2F6EDF
:103E20007EEC2CF02E0513E181B32C6709D0FE0E39
:103E300000018F6FC90E8E6F010E906F0FEC28F08E
:103E400001012E6B010E2C6FF290F286010C2C05F5
:103E50001EE181A309D0FE0E00018F6FBD0E8E6F93
:103E6000010E906F0FEC28F001015FA130670FD0B9
:103E70005CA10DD0030E456F81A309D0F60E0001A1
:103E80008F6FC80E8E6F010E906F0FEC28F001013E
:103E90002C6B1200898E010E306EA80E2F6E7EECF8
:103EA0002CF0040E456F040C010E00016D6FA80E7E
:103EB0006C6FC80E6E6F000E6F6B706B716BF3ECF6
:103EC00022F00009D8B41200899E0101010E306E63
:103ED000A80E2F6E7EEC2CF076D7455101E150D71D
:103EE000010A01E156D7030A01E170D7010AD2E0C5
:103EF000070ADAE068D7B1D0010131672BD0080E8C
:103F00000E6ECC0E0D6E0F6A010E106ED0EC1CF012
:103F10000DC03DF00EC03EF03E503D1035E128EEA4
:103F2000CCF0DF50E00B0509DF6E000EAAEC2CF0A0
:103F30001B6E28EECCF01B3A1B46DF501B181F0BE4
:103F40001B18DF6E000EE8CFCDF83E6A020E3D6E04
:103F50008C9A1AD028EECCF0DF50E00B0809DF6E07
:103F6000000EAAEC2CF01B6E28EECCF01B3A1B4680
:103F7000DF501B181F0B1B18DF6E28EECDF03FC063
:103F8000DFFF3E6A020E3D6E5B0EE8CFC9F828EEF9
:103F9000CAF03DC0DEFF3EC0DDFF080E096EC90E4F
:103FA000086E030E3D240A6E000E3E200B6E8FEC51
:103FB00027F008C0F9F909C0FAF95D0EE8CFFBF95E
:103FC000030E3D243B6E000E3E203C6E28EECAF0F0
:103FD000DECF1BF0DDCF1CF0060E1B243D6E000E65
:103FE0001C203E6E376A386A396A3A6A010E446E9E
:103FF0003D50375C3E50385835E23B50375C3C50C2
:10400000385809E2C90E3724D96E080E3820DA6E06
:10401000DF501D6E0AD0F90E3924D96E090E3A20F0
:10402000DA6EDF501D6E394A3A2A374A382A28EEAE
:10403000CCF0DF38E832070B01012F6F3E50381803
:1040400002E13D50371807E1310502E1316B02D042
:10405000010E366F446A1D501200445001E14CD7E6
:10406000010AC6E0000C010188A102D0898001D0BC
:104070008990010188A302D0898401D0899401012B
:1040800088A502D0898801D08998010188A702D02B
:104090008D8001D08D90010180A58AD0020E000193
:1040A000766F000E756FFD0E786F4B0E776F80CFB9
:1040B00079F07A6B43EC10F0020E00018F6F000E66
:1040C0008E6F010E906F0FEC28F0020E0001766FDC
:1040D000000E756FFD0E786F3B0E776F92CF79F003
:1040E0007A6B43EC10F0020E00018F6F000E8E6FA2
:1040F000010E906F0FEC28F0020E0001766F000E9B
:10410000756FFD0E786F6B0E776F82CF79F07A6BDB
:1041100043EC10F0020E00018F6F000E8E6F010E47
:10412000906F0FEC28F0020E0001766F000E756F95
:10413000FD0E786F5B0E776F94CF79F07A6B43EC5E
:1041400010F0020E00018F6F000E8E6F010E906F47
:104150000FEC28F0020E0001766F000E756FFD0E59
:10416000786F8B0E776F83CF79F07A6B43EC10F01A
:10417000020E00018F6F000E8E6F010E906F0FEC1C
:1041800028F0020E0001766F000E756FFD0E786F3D
:104190007B0E776F95CF79F07A6B43EC10F0020EBF
:1041A00000018F6F000E8E6F010E906F0FEC28F0E4
:1041B000010188AB02D08D8401D08D941200B40E21
:1041C0000101BB6FBC6BBD6BBE6B350501E08CD0D4
:1041D000580EBB6F020EBC6FBD6BBE6B85D0010E5F
:1041E00000016D6F7C0E6C6FBBC160F0BCC161F0F3
:1041F000BDC162F0BEC163F0640E646F000E656BFA
:10420000666B676B2EEC2AF060C06EF061C06FF0D9
:1042100062C070F063C071F0F3EC22F00009D8B412
:1042200012000101759D758F8D94010E2D6F200E6A
:1042300099EC2AF0010E2F6E000E4FEC27F0010EC4
:104240002F6E4FEC27F0010180A909D0FA0E000172
:104250008F6F540E8E6F010E906F0FEC28F0010ED1
:104260000101426F010C898E010E306E9C0E2F6E83
:104270007EEC2CF0020E426F020C010E00016D6FFD
:104280009C0E6C6FC80E6E6F000E6F6B706B716B57
:10429000F3EC22F00009D8B41200899E0101010E4E
:1042A000306E9C0E2F6E7EEC2CF0030E426F030CD2
:1042B000010E00016D6F9C0E6C6F2C0E6E6F010E67
:1042C0006F6F000E706B716BF3EC22F00009D8B4C5
:1042D0001200010E0101F36F010E306E7C0E2F6E85
:1042E0007EEC2CF0426B1200425101E178D7010ABA
:1042F000BAE0030AC2E0010AD8A41200D9D7F29E9C
:104300006CC0D9FF6DC0DAFFDECF70F0DECF71F088
:10431000DECF72F0DECF73F07051315C71513258E4
:10432000725133587351345821E26CC0D9FF6DC0BB
:10433000DAFFDECF70F0DECF71F0DECF72F0DECFCD
:1043400073F0701F711F721F731F70C074F071C003
:1043500075F072C076F073C077F031507427325028
:104360007523335076233450772318D06CC0D9FF8F
:104370006DC0DAFFDECF70F0DECF71F0DECF72F00D
:10438000DECF73F07051315C746F71513258756FBC
:1043900072513358766F73513458776FF28E510ED5
:1043A000745DCF0E75592E0E7659750E77590EE342
:1043B0006CC0D9FF6DC0DAFF000EDE6ADE6ADE6A0D
:1043C000DD6A6C6B6D6B6E6B6F6B120074C060F0AE
:1043D00075C061F076C062F077C063F00A0E646F5A
:1043E000000E656B666B676B2EEC2AF060C06CF09C
:1043F00061C06DF062C06EF063C06FF012000F0E0E
:10440000766F70C077F071C078F072C079F076295D
:104410007A6F04D0D8907933783377337A2FFAD7FC
:1044200077517B6F00017B6704D0706B716B726B8F
:1044300012000F0E766F73C077F074C078F075C0FD
:1044400079F076297A6F04D0D8907933783377333E
:104450007A2FFAD77751806F0001806704D0706B94
:10446000716B726B120080517B0F7B2772C080F0E2
:1044700000017551801B800E8017718F748F000EA4
:1044800075177C6B7D6B7E6B070E7F6F70A106D0FE
:1044900073517C2774517D2375517E23D8907233DC
:1044A00071337033D8907337743775377F2FEED7E9
:1044B000090E7F6F70A106D073517C2774517D2344
:1044C00075517E23D890723371337033D8907E3318
:1044D0007D337C337F2FEED77CC060F07DC061F0F0
:1044E0007EC062F07BC063F080C064F03DEC26F0DB
:1044F00060C070F061C071F062C072F01200010122
:10450000F26BEE6BEF6BF06BF16B37EC2CF0010E96
:10451000D16ED08C49EC25F0000E6FEC2CF0316A96
:10452000326A336A346A0101010E306EEE0E2F6E6C
:104530007EEC2CF0010E0001616F800E606F626BEB
:10454000040E636F93EC2BF0010180A104D0806B0B
:10455000816B826B836B83518011811182113CE0EE
:10456000020E0001766F000E756FFC0E786FB00EB4
:10457000776F010E7A6FF50E796F43EC10F0020E33
:1045800000018F6F000E8E6F010E906F0FEC28F000
:1045900023D0A1EC25F00CEC0DF0A7EC19F00101F3
:1045A00030671FD0F26B1DD00CEC0DF04FEC18F003
:1045B000CEEC1DF0EFEC28F0D6EC08F0A7EC19F0EB
:1045C000010189B3316702D01DEC2DF001013005E6
:1045D00008E1010EF26F05D00101F251E5E0010A98
:1045E000D8E00400F9D7F29E6CC0D9FF6DC0DAFFA5
:1045F000DECF72F0DECF73F0DECF74F0DECF75F079
:104600007251315C7351325874513358755134586A
:1046100021E26CC0D9FF6DC0DAFFDECF72F0DECFD1
:1046200073F0DECF74F0DECF75F0721F731F741F4E
:10463000751F72C076F073C077F074C078F075C0E3
:1046400079F0315076273250772333507823345025
:10465000792318D06CC0D9FF6DC0DAFFDECF72F0BD
:10466000DECF73F0DECF74F0DECF75F07251315CC7
:10467000766F73513258776F74513358786F755124
:104680003458796FF28E510E765DCF0E77592E0E1B
:104690007859750E795910E3766B776B786B796B77
:1046A000316A326A336A346A6CC0D9FF6DC0DAFF8E
:1046B000DE6ADE6ADE6ADD6A6E51765D6F517759B9
:1046C000705178597151795901E3010C000C0F0EAA
:1046D000856F81C086F082C087F083C088F085290D
:1046E000896F04D0D890883387338633892FFAD7DF
:1046F00086518F6F00018F6705D0816B826B836B52
:10470000846B1200170E856F81C086F082C087F01F
:1047100083C088F08529896F04D0D8908833873387
:104720008633892FFAD786518A6F828F836B8151A6
:104730008B6F82518C6F83518D6F8E6B8E0E8F5F5E
:104740008FAF0CD08F51800A8F0FD7E3D8908E3364
:104750008D338C338B338F3FF9D70CD0170E8F6589
:1047600007D0CBD7D8908B378C378D378E378F07C4
:104770008F67F8D78A5108E08E1F8D1F8C1F8B6DB5
:10478000000E8C238D238E238BC081F08CC082F091
:104790008DC083F08EC084F01200B20ED66ED59616
:1047A00037EC2CF00101306B010E0001616F800EBF
:1047B000606F010E636F840E626F656B040E646F31
:1047C000BAEC2AF0010E0101F36F80AB09D0FC0EA8
:1047D00000018F6F150E8E6F010E906F0FEC28F099
:1047E00007EC2DF0899C010180AB09D0FC0E000183
:1047F0008F6FC30E8E6F010E906F0FEC28F08C9CA4
:10480000010180AB09D0FE0E00018F6F800E8E6F0C
:10481000010E906F0FEC28F0010E0001616F5F0E2A
:10482000606F636B626B656B0A0E646FCBEC2BF091
:10483000010180AB09D0FE0E00018F6FDF0E8E6F7D
:10484000010E906F0FEC28F0010E406E010181A364
:10485000010CF70E00018F6FD50E8E6F010E906F59
:104860000FEF28F0E8CF78F071C079F072C07AF0DD
:104870000001750505E1794B7A2B7307D8A0740701
:1048800029EEFFF0DF507819E00B7819DF6E29EE82
:10489000FFF01F0EDF160A0E616F000E606F79C009
:1048A00062F07AC063F073C064F074C065F0BAEC73
:1048B0002AF07329766F000E7421776F76C0FDF9A8
:1048C00077C0FEF9090E616FFC0E606F29EEFDF0F6
:1048D000DECF76F0DDCF77F0030E7625626F000E27
:1048E0007721636F0FEC27F060C02CFB61C02DFBBC
:1048F000090E616FFC0E606F636B040E626FAFECAC
:104900002BF00A0E0001616F000E606F73C062F041
:1049100074C063F0AFEC2BF00B0E0001616F2C0E36
:10492000606F636B030E626FAFEF2BF069C073F0C3
:104930006AC074F067C06EF068C06FF067C070F056
:1049400068C071F0726B756B1DD0A6B2FED773C0D4
:10495000A9FF7451AA6E6EC0D9FF6FC0DAFFDF5095
:10496000A86EA69EA69CA684F29E550EA76EAA0EC1
:10497000A76EA682F28EA694A692734B742B6E4BF2
:104980006F2B752B75512F6E306A6B512F5C6C51EC
:104990003058DBE3756B1AD072C060F0616B69C090
:1049A00062F0010E636F93EC2BF07251D96EDA6AEC
:1049B000DF502F6E70C0D9FF71C0DAFFDF18D8A4A6
:1049C0001200694B6A2B704B712B752B75512F6E32
:1049D000306A6B512F5C6C513058D8B01200DCD764
:1049E000EACF24F0E1CF25F0E2CF26F0D9CF27F0AF
:1049F000DACF28F0F3CF29F0F4CF2AF0F6CF2BF05E
:104A0000F7CF2CF0F8CF2DF0F5CF2EF09EA601D0E9
:104A100001D004D09E96CEEC26F010D0C6BE01D0B8
:104A200001D008D0C6BC01D001D004D0A1A601D0CD
:104A300001D004D0C69EC69CA196C950F2A201D056
:104A400001D00AD0F292F298010160AD01D001D0FC
:104A500003D07583010E416E2EC0F5FF2DC0F8FF07
:104A60002CC0F7FF2BC0F6FF2AC0F4FF29C0F3FFCC
:104A700028C0DAFF27C0D9FF26C0E2FF25C0E1FF2A
:104A800024C0EAFF23C0E9FF22C0FBFF21C0FAFFD8
:104A900011002A0E926E806A2A0E0F01386F7F0E67
:104AA000936E816A616A380E396F628C6298629A7D
:104AB000629EBE0E946E826A3A6B0F0E956E836A8A
:104AC0003B6B0A0E966E846A020E3C6F070ED5127F
:104AD000D596D598D59AD58CD59EB20ED66E870E22
:104AE000BA16BA94BA50FC0B0209BA6EC60EBC6E66
:104AF00051955151FC0B0209516F780E5113536BB4
:104B0000D08ED08CF18EF19CF19AF198F194F190C5
:104B10009F927F909D827D80F09EF098F092F09C15
:104B2000F096F090F290F292F294F296F298F28A65
:104B3000F28CF28EF28CF28ED58E8C9C899C8C9AA3
:104B4000120047D0560E00016C6F000E6D6F0F0EF5
:104B50006D6F5F0E6C656D6B900E6E6F010E6F6FFB
:104B6000000E706B716BF3EC22F00009D8A4486A58
:104B700012008A8E560E2F6E000E306E0F0E306EA3
:104B80005F0E2F64306A7EEC2CF08A9E010163393F
:104B9000E832070B020A1AE10400560E2F6E000ECF
:104BA000306E0F0E306E5F0E2F64306A7EEC2CF08C
:104BB0008A8E560E2F6E000E306E0F0E306E5F0E08
:104BC0002F64306A7EEC2CF08A9E0400010E486E41
:104BD000010C4850CEE0010AD8A41200B3D747D048
:104BE00089B942661200010E426E8C8881A309D0F9
:104BF000F70E00018F6F8A0E8E6F010E906F0FEC13
:104C000028F04E0E2F6E000E306E0F0E306E5F0EBF
:104C10002F64306A7EEC2CF0010E466E010C4E0EB5
:104C200000016C6F000E6D6F0F0E6D6F5F0E6C6587
:104C30006D6BF40E6E6F010E6F6F000E706B716B0B
:104C4000F3EC22F00009D8B412008C98010181A382
:104C500009D0F70E00018F6FB00E8E6F010E906FAE
:104C60000FEC28F001018999426A466A1200465009
:104C7000B7E0010AD8A41200D2D7635104E0605112
:104C80006111621109E1606B616B626B1200632B51
:104C9000D890623361336033656B666BFE0E6215CC
:104CA000676F6551661167110AE0F1D7632B602BBE
:104CB000000E61236223D890623361336033656BE9
:104CC000666B6251676F65516611671106E0EED73A
:104CD0006307D89060376137623761AFF9D763A156
:104CE000619FD89063336351676F666B656B6551E5
:104CF000601366516113675162136451D8A4628FC7
:104D000060C060F061C061F062C062F0120040D02B
:104D10004004D8A412008C884A0E2F6E000E306E0C
:104D20000F0E306E5F0E2F64306A7EEC2CF0010E99
:104D3000456E406A010E426E010181A3010CF90E1D
:104D400000018F6F0E0E1FD04A0E00016C6F000E17
:104D50006D6F0F0E6D6F5F0E6C656D6BC80E6E6FB5
:104D6000000E6F6B706B716BF3EC22F00009D8B41E
:104D700012008C98456A426A010181A31200FB0E61
:104D800000018F6FD80E8E6F010E906F0FEF28F01D
:104D90004550BEE0010AD8A41200D6D7CBBCC7A8A4
:104DA00028D000015E82C698CB9C1200C698C69C93
:104DB000C950C6881200C698C69CC9CF20F02050A2
:104DC000DDEC29F0CB8CC6881200C698C9507BEC6C
:104DD0001FF0C96EF8D7C6B802D0C698F8D7C95028
:104DE0001200C7503C0B340AD8B4C5ACF8D7C95030
:104DF000F6D7C7502D0B1E6E1F6A1F5003E0100A16
:104E00000BE0EFD71E50090AD1E0040ADEE0240AC5
:104E1000D2E0050AE0E0E5D71E50E1E0E2D76F6B93
:104E2000706B6D6B6E6B6D6B6E6B2FD060C0D9FF4E
:104E300061C0DAFFDF506F19646F000E7019656F83
:104E4000656BD8906435666F6535676FD40E6625DF
:104E5000F66EF30E6721F76EF86A000EF82209006D
:104E6000F5CF68F00900F5CF69F070C06AF06AC04C
:104E70006BF06C6B6C6B68516B196F6F69516C19CF
:104E8000706F604B612B6D4B6E2B62516D5D63518A
:104E90006E59CCE36FC060F070C061F01200E8CFD3
:104EA00030F030661FD0000EE8CF80F7E8CF81F7F2
:104EB000E8CF82F7E8CF83F7E8CF84F7E8CF85F72C
:104EC000400EE8CF86F7040EE8CF87F72F0409E1FC
:104ED000000EE8CF88F7E8CF89F7E8CF8AF7E8CF68
:104EE0008BF78C9A3004D8A41200000EE8CFBFF8DC
:104EF000E8CFC0F8E8CFC1F8E8CFC2F82F04D8A4B3
:104F00001200000EE8CFC3F8E8CFC4F8E8CFC5F828
:104F1000E8CFC6F8E8CFC7F8E8CFC8F8000C176AA2
:104F2000186A156A166A156A166A2FD008C0D9FF62
:104F300009C0DAFFDF5017180C6E000E18180D6E3E
:104F40000D6AD8900C340E6E0D340F6ED40E0E24F4
:104F5000F66EF30E0F20F76EF86A000EF8220900C5
:104F6000F5CF10F00900F5CF11F018C012F012C003
:104F700013F0146A146A10501318176E1150141895
:104F8000186E084A092A154A162A0A50155C0B5051
:104F90001658CCE317C008F018C009F01200E8CF8B
:104FA00009F009661FD0000EE8CF80F7E8CF81F73F
:104FB000E8CF82F7E8CF83F7E8CF84F7E8CF85F72B
:104FC000400EE8CF86F7040EE8CF87F7080409E122
:104FD000000EE8CF88F7E8CF89F7E8CF8AF7E8CF67
:104FE0008BF78C9A0904D8A41200000EE8CFBFF802
:104FF000E8CFC0F8E8CFC1F8E8CFC2F80804D8A4D9
:105000001200000EE8CFC3F8E8CFC4F8E8CFC5F827
:10501000E8CFC6F8E8CFC7F8E8CFC8F8000C20EE14
:1050200091F06E0EDE6AE82EFDD701013005D8B48E
:1050300012000001000E616F910E606F636B626B76
:10504000656B6E0E646FCBEC2BF0000E766F910EDD
:10505000756FFE0E786FD50E776F31C079F032C064
:105060007AF033C07BF034C07CF08EC07DF08FC00E
:105070007EF043EC10F0000E616F910E606F21EC3A
:1050800029F000019005D8A412000D0EC5EC2CF0FB
:105090000A0EC5EF2CF0686B696B6A6B6B6B67511E
:1050A00064116511661129E0010E6C6F06D0D8906D
:1050B00064376537663767376C2B67AFF8D7D8909A
:1050C000683769376A376B376451605D655161597C
:1050D000665162596751635909E36451605F6551D4
:1050E000615B6651625B6751635B6881D89067332F
:1050F0006633653364336C2FE2D768C060F069C0F3
:1051000061F06AC062F06BC063F0120003EE40F021
:1051100017EEEFF0EE6AE550E150FCE1E250FAE103
:1051200003EE00F0400EEE6AE806FDE102EE00F04C
:10513000D20EEE6AE806FDE101EE00F0BB0EEE6A6B
:10514000E806FDE15E6A00EE31F02D0EEE6AE8063B
:10515000FDE11C0EF66E5A0EF76E000EF86E01EEB3
:10516000F3F010EE0CF00900F5CFEEFFE550E15042
:10517000FAE100017FEF22F02CD0010188A9120092
:10518000898E520E2F6E000E306E0F0E306E5F0E37
:105190002F64306A7EEC2CF0010E476E010C520E2B
:1051A00000016C6F000E6D6F0F0E6D6F5F0E6C6502
:1051B0006D6BC80E6E6F000E6F6B706B716BF3ECE6
:1051C00022F00009D8B41200899E01018899476A2B
:1051D00012004750D2E0010AD8A41200E0D729D02B
:1051E000010E306EAC0E2F6E7EEC2CF0010E466F71
:1051F000010C010E00016D6FAC0E6C6F050E6E6F31
:10520000000E6F6B706B716BF3EC22F00009D8B479
:105210001200020E0101466F020C87EC26F0F0EC42
:1052200014F0F6EC2CF0EFEC25F0E9EF28F0466BEB
:10523000120001014651D4E0010ADBE0030AEDE06F
:10524000F6D701013005D8B4120017D0000160C0B4
:10525000F6FF61C0F7FF000EF86E0F0EF76403D083
:105260000800F55005D0F6CFE9FFF7CFEAFFEF5081
:10527000C5EC2CF00001604B612B000160C0F6FF13
:1052800061C0F7FF000EF86E0F0EF76403D0080040
:10529000F55005D0F6CFE9FFF7CFEAFFEF50000950
:1052A000D8B41200D3D7745171117211731123E065
:1052B000010E2F6E06D0D89071377237733774375E
:1052C0002F2A74AFF8D771516D5D72516E597351B9
:1052D0006F597451705908E371516D5F72516E5B73
:1052E00073516F5B7451705BD89074337333723346
:1052F00071332F2EE8D76DC06DF06EC06EF06FC0A9
:105300006FF070C070F0120060C02FF061C030F01C
:1053100013D06407D8A0650762C0D9FF63C0DAFF65
:10532000624B632B2FC0E1FF30C0E2FF2F4A302ACF
:10533000DFCFE7FFE7500BE06551641108E0E9D7E4
:105340002FC0D9FF30C0DAFFDF6A2F4A302A640746
:10535000D8A0650700016429D8B46529D8B4120023
:10536000EFD762C066F063C067F000016A6B0101AD
:105370003005D8B4120000016B6B6C6B17D0680E4F
:10538000306E66C0D9FF67C0DAFFDF5023EC2CF027
:10539000000E616F680E606F21EC29F0200EC5ECE5
:1053A0002CF00001664B672B6B4B6C2B64516B5DD3
:1053B00065516C59D8B01200E2D7E8CF0AF028EE58
:1053C000C1F0DECF08F0DDCF09F0330E085C010E2E
:1053D000095806E328EEC7F0DE2A000EDD22000C95
:1053E00028EEBFF0DECF08F0DDCF09F08C0E0824E8
:1053F000D96E070E0920DA6E0AC0DFFF28EEBFF073
:10540000DE2A000EDD2228EEC1F0DE2ADD22000CAD
:105410008E0E2F6E06D0D8906B336A3369336833A3
:105420002F2A6C6B6D6B6E6B6B516F6F6F516C11C4
:105430006D116E11F0E168C060F069C061F06AC082
:1054400062F02FC063F0000E646B3DEC26F060C08C
:1054500068F061C069F062C06AF01200686B696B45
:105460006A6B6B6B60A108D0645168276551692332
:1054700066516A2367516B23D89064376537663766
:105480006737D8906333623361336033635160119F
:1054900061116211E7E168C060F069C061F06AC043
:1054A00062F06BC063F0120060C02FF061C030F09A
:1054B00002D02F4A302A2FC0D9FF30C0DAFFDF5088
:1054C00005E0F7D72F4A302A624B632B62C0F6FF04
:1054D00063C0F7FF000EF86E2FC0D9FF30C0DAFFAF
:1054E0000800F5CFDFFFDF50D8B41200EBD7AE0EC7
:1054F0000001736F470E746F400E756F35C068F012
:1055000036C069F05DEC2CF068C070F069C071F0D5
:105510006AC072F0FFEC21F070C081F071C082F0BF
:1055200072C083F067EC23F081C090F082C091F0EC
:105530001200E8CF2FF0948694880F013A973A9999
:10554000C69EC69CC68AC688C650F00B0609C66EA3
:10555000C59EC59AC580CB9CCB9ACB94CB92CB9061
:10556000CB962FC0C8FFC78EC79CC7909E969F86BC
:105570009D86120062C068F063C069F060C066F08A
:1055800061C067F00ED068C0D9FF69C0DAFF66C09D
:10559000E1FF67C0E2FFDFCFE7FF684B692B664B97
:1055A000672B6407D8A0650700016429D8B4652972
:1055B000D8B41200E8D7E8CF2FF001D0010C2F505B
:1055C000010AFCE0030AFAE0010AF8E0070AF6E043
:1055D000010AF4E0030AF2E0010AF0E00F0AEEE04B
:1055E000010AECE0030AEAE0010AE8E0070AE6E063
:1055F000010AE4E0000CE8CF08F001D0010C0850EB
:10560000010AFCE0030AFAE0010AF8E0070AF6E002
:10561000010AF4E0030AF2E0010AF0E00F0AEEE00A
:10562000010AECE0030AEAE0010AE8E0070AE6E022
:10563000010AE4E0000C6351621117E0010E2F6EC5
:1056400004D0D890623763372F2A63AFFAD76251FC
:10565000605D6351615904E36251605F6351615B56
:10566000D890633362332F2EF2D760C060F061C0F0
:1056700061F012000B500A1017E0010E0C6E04D0FE
:10568000D8900A360B360C2A0BAEFAD70A50085CB3
:105690000B50095804E30A50085E0B50095AD89081
:1056A0000B320A320C2EF2D708C008F009C009F0FC
:1056B00012006151030BAA6E60C0A9FF62C0A8FF6F
:1056C000A69EA69CA684000EF2BE010E2F6EF29E30
:1056D000550EA76EAA0EA76EA682A6B2FED72FB051
:1056E00002D0F29E01D0F28EA6941200E8CF01F013
:1056F000320E0201985D000E995905E39F4BA02BD5
:10570000986B996B1200640E9625D96E020E972144
:10571000DA6E01C0DFFF964B972B984B992B0F0148
:10572000536B5185120060C064F061C065F0666B18
:10573000666B10D062C0A9FFAA6AA69EA69CA6802E
:1057400064C0D9FF65C0DAFFA8CFDFFF622B644BCE
:10575000652B662B6351665DD8B01200EBD760C035
:1057600064F061C065F001013005D8B412000DD0BD
:1057700064C0D9FF65C0DAFFDF50C5EC2CF0000132
:105780006207D8A06307644B652B00016351621167
:10579000D8B41200EDD760C02FF061C030F008D04F
:1057A0002FC0D9FF30C0DAFF62C0DFFF2F4A302A96
:1057B0006407D8A0650700016429D8B46529D8B466
:1057C0001200EED72FC060F030C061F003D00001AE
:1057D000604B612B60C0D9FF61C0DAFFDF50F7E199
:1057E0002F500001605D2F6E30506159306E1200F5
:1057F0002F6A306A60A104D062512F266351302293
:10580000D89062376337D89061336033615160114B
:10581000F1E12FC060F030C061F0120030AE0ED068
:105820002FC060F030C061F00001601F611F604B4D
:10583000612B60C02FF061C030F012002FC02FF03C
:1058400030C030F01200E8CF60F03050D96EDA6A24
:1058500060390F0BEBEC2CF0DF6E302A3050D96E34
:10586000DA6A60510F0BEBEC2CF0DF6E1200D39E66
:10587000D3508F0B6009D36ED396D350FC0B020923
:10588000D36ED298D296D29C9B9C9B9E01D0040052
:10589000D3B41200FCD7C08EC050F80B0509C06EFF
:1058A000C050C70B1009C06EF30EC116FC0EC11616
:1058B0009E9C9F9C9D8CC280FC0C68C060F069C05F
:1058C00061F0626B8E0E636F000E646B3DEC26F030
:1058D00060C068F061C069F062C06AF01200E8CF91
:1058E0002FF0949C948EAC8AAC98AC9CAC84AB8E1C
:1058F000AB9CAB88B86A2FC0AFFF1200F29E2FC0DE
:10590000D9FF30C0DAFF31C0DEFF32C0DEFF33C066
:10591000DEFF34C0DEFFF28E1200E8CF61F0606B74
:105920003A0E616105D02F0E616502D0010E606FE5
:1059300060C02FF02F301200E8CF2FF0432A070E5F
:1059400043162F04D8B4436A436602D0010E436E57
:1059500043501200E8CF08F0432A070E431608040C
:10596000D8B4436A436602D0010E436E435012001E
:10597000E8CF30F030B002D09D9A01D09D8A2FB090
:1059800002D09D9801D09D881200E8CF2FF0010130
:105990003005D8B4120001D00400ACA2FDD72FC04E
:1059A000ADFF1200E8CF30F030C02FF02F462F4669
:1059B000C2502F18830B2F18C26EC28212003050B3
:1059C000030BAA6E2FC0A9FFA69CA69EA68000F07E
:1059D00000F0A8501200E8CF2FF00A0E2F6003D07D
:1059E0002F50300F12002F50370F1200010188ABDB
:1059F0001200889B010E356F8D848989010CE8CFD8
:105A00002FF02FB002D09F9A01D09F8A1200010E72
:105A10000001616F7C0E606F14EF2DF00101312EDB
:105A2000302E334C0000000060C02FF061C030F019
:105A30007EEF2CF0A6A21200FDD7FF001200FF009F
:10F3D000FF00FF000000C1C081C1400101C3C003A4
:10F3E000800241C201C6C006800741C70005C1C5F1
:10F3F00081C4400401CCC00C800D41CD000FC1CFB1
:10F4000081CE400E000AC1CA81CB400B01C9C009A0
:10F41000800841C801D8C018801941D9001BC1DB40
:10F4200081DA401A001EC1DE81DF401F01DDC01DF0
:10F43000801C41DC0014C1D481D5401501D7C01710
:10F44000801641D601D2C012801341D30011C1D120
:10F4500081D0401001F0C030803141F10033C1F360
:10F4600081F240320036C1F681F7403701F5C035F0
:10F47000803441F4003CC1FC81FD403D01FFC03FB0
:10F48000803E41FE01FAC03A803B41FB0039C1F9A0
:10F4900081F840380028C1E881E9402901EBC02B00
:10F4A000802A41EA01EEC02E802F41EF002DC1EDF0
:10F4B00081EC402C01E4C024802541E50027C1E710
:10F4C00081E640260022C1E281E3402301E1C02120
:10F4D000802041E001A0C060806141A10063C1A320
:10F4E00081A240620066C1A681A7406701A5C065F0
:10F4F000806441A4006CC1AC81AD406D01AFC06FB0
:10F50000806E41AE01AAC06A806B41AB0069C1A99F
:10F5100081A840680078C1B881B9407901BBC07B3F
:10F52000807A41BA01BEC07E807F41BF007DC1BDEF
:10F5300081BC407C01B4C074807541B50077C1B70F
:10F5400081B640760072C1B281B3407301B1C0711F
:10F55000807041B00050C190819140510193C053DF
:10F56000805241920196C056805741970055C195EF
:10F5700081944054019CC05C805D419D005FC19FAF
:10F58000819E405E005AC19A819B405B0199C0599F
:10F59000805841980188C04880494189004BC18BFF
